{
  "contractName": "FileShare",
  "abi": [
    {
      "inputs": [
        {
          "internalType": "string",
          "name": "_hash",
          "type": "string"
        },
        {
          "internalType": "string",
          "name": "_description",
          "type": "string"
        }
      ],
      "name": "addFile",
      "outputs": [],
      "stateMutability": "nonpayable",
      "type": "function"
    },
    {
      "inputs": [
        {
          "internalType": "uint256",
          "name": "index",
          "type": "uint256"
        }
      ],
      "name": "getFile",
      "outputs": [
        {
          "internalType": "string",
          "name": "",
          "type": "string"
        },
        {
          "internalType": "string",
          "name": "",
          "type": "string"
        }
      ],
      "stateMutability": "view",
      "type": "function",
      "constant": true
    },
    {
      "inputs": [],
      "name": "getFileCount",
      "outputs": [
        {
          "components": [
            {
              "internalType": "string",
              "name": "hash",
              "type": "string"
            },
            {
              "internalType": "string",
              "name": "description",
              "type": "string"
            }
          ],
          "internalType": "struct FileShare.File[]",
          "name": "",
          "type": "tuple[]"
        }
      ],
      "stateMutability": "view",
      "type": "function",
      "constant": true
    }
  ],
  "bytecode": "0x608060405234801561001057600080fd5b506109f6806100206000396000f3fe608060405234801561001057600080fd5b50600436106100415760003560e01c8063248bfc3b146100465780632bfda31314610062578063bab50cc914610093575b600080fd5b610060600480360381019061005b9190610625565b6100b1565b005b61007c600480360381019061007791906106d3565b610137565b60405161008a929190610788565b60405180910390f35b61009b6102a5565b6040516100a8919061090f565b60405180910390f35b6000604051806040016040528084815260200183815250905060008190806001815401808255809150506001900390600052602060002090600202016000909190919091506000820151816000019080519060200190610112929190610428565b50602082015181600101908051906020019061012f929190610428565b505050505050565b6060806000838154811061014e5761014d610931565b5b90600052602060002090600202016000016000848154811061017357610172610931565b5b90600052602060002090600202016001018180546101909061098f565b80601f01602080910402602001604051908101604052809291908181526020018280546101bc9061098f565b80156102095780601f106101de57610100808354040283529160200191610209565b820191906000526020600020905b8154815290600101906020018083116101ec57829003601f168201915b5050505050915080805461021c9061098f565b80601f01602080910402602001604051908101604052809291908181526020018280546102489061098f565b80156102955780601f1061026a57610100808354040283529160200191610295565b820191906000526020600020905b81548152906001019060200180831161027857829003601f168201915b5050505050905091509150915091565b60606000805480602002602001604051908101604052809291908181526020016000905b8282101561041f57838290600052602060002090600202016040518060400160405290816000820180546102fc9061098f565b80601f01602080910402602001604051908101604052809291908181526020018280546103289061098f565b80156103755780601f1061034a57610100808354040283529160200191610375565b820191906000526020600020905b81548152906001019060200180831161035857829003601f168201915b5050505050815260200160018201805461038e9061098f565b80601f01602080910402602001604051908101604052809291908181526020018280546103ba9061098f565b80156104075780601f106103dc57610100808354040283529160200191610407565b820191906000526020600020905b8154815290600101906020018083116103ea57829003601f168201915b505050505081525050815260200190600101906102c9565b50505050905090565b8280546104349061098f565b90600052602060002090601f016020900481019282610456576000855561049d565b82601f1061046f57805160ff191683800117855561049d565b8280016001018555821561049d579182015b8281111561049c578251825591602001919060010190610481565b5b5090506104aa91906104ae565b5090565b5b808211156104c75760008160009055506001016104af565b5090565b6000604051905090565b600080fd5b600080fd5b600080fd5b600080fd5b6000601f19601f8301169050919050565b7f4e487b7100000000000000000000000000000000000000000000000000000000600052604160045260246000fd5b610532826104e9565b810181811067ffffffffffffffff82111715610551576105506104fa565b5b80604052505050565b60006105646104cb565b90506105708282610529565b919050565b600067ffffffffffffffff8211156105905761058f6104fa565b5b610599826104e9565b9050602081019050919050565b82818337600083830152505050565b60006105c86105c384610575565b61055a565b9050828152602081018484840111156105e4576105e36104e4565b5b6105ef8482856105a6565b509392505050565b600082601f83011261060c5761060b6104df565b5b813561061c8482602086016105b5565b91505092915050565b6000806040838503121561063c5761063b6104d5565b5b600083013567ffffffffffffffff81111561065a576106596104da565b5b610666858286016105f7565b925050602083013567ffffffffffffffff811115610687576106866104da565b5b610693858286016105f7565b9150509250929050565b6000819050919050565b6106b08161069d565b81146106bb57600080fd5b50565b6000813590506106cd816106a7565b92915050565b6000602082840312156106e9576106e86104d5565b5b60006106f7848285016106be565b91505092915050565b600081519050919050565b600082825260208201905092915050565b60005b8381101561073a57808201518184015260208101905061071f565b83811115610749576000848401525b50505050565b600061075a82610700565b610764818561070b565b935061077481856020860161071c565b61077d816104e9565b840191505092915050565b600060408201905081810360008301526107a2818561074f565b905081810360208301526107b6818461074f565b90509392505050565b600081519050919050565b600082825260208201905092915050565b6000819050602082019050919050565b600082825260208201905092915050565b600061080782610700565b61081181856107eb565b935061082181856020860161071c565b61082a816104e9565b840191505092915050565b6000604083016000830151848203600086015261085282826107fc565b9150506020830151848203602086015261086c82826107fc565b9150508091505092915050565b60006108858383610835565b905092915050565b6000602082019050919050565b60006108a5826107bf565b6108af81856107ca565b9350836020820285016108c1856107db565b8060005b858110156108fd57848403895281516108de8582610879565b94506108e98361088d565b925060208a019950506001810190506108c5565b50829750879550505050505092915050565b60006020820190508181036000830152610929818461089a565b905092915050565b7f4e487b7100000000000000000000000000000000000000000000000000000000600052603260045260246000fd5b7f4e487b7100000000000000000000000000000000000000000000000000000000600052602260045260246000fd5b600060028204905060018216806109a757607f821691505b6020821081036109ba576109b9610960565b5b5091905056fea2646970667358221220a320f5516cb7bbbdedba7a5cedde349131b916e614998719937ffa59fa31ba2864736f6c634300080d0033",
  "immutableReferences": {},
  "source": "//SPDX-License-Identifier:MIT\r\npragma solidity ^0.8.13;\r\n\r\ncontract FileShare {\r\n    struct File {\r\n        string hash;       // IPFS hash\r\n        string description;\r\n    }\r\n\r\n    File[] files;\r\n\r\n    function addFile(string memory _hash, string memory _description) public {\r\n        File memory newFile = File({\r\n            hash: _hash,\r\n            description: _description\r\n        });\r\n        files.push(newFile);\r\n    }\r\n\r\n    function getFile(uint index) public view returns (string memory, string memory) {\r\n        return (files[index].hash, files[index].description);\r\n    }\r\n\r\n    function getFileCount() public view returns (File[] memory) {\r\n        return files;\r\n    }\r\n}\r\n",
  "sourcePath": "E:\\Web\\ReactPrac\\DECE\\ChatApp\\secondsServer\\contracts\\FileShare.sol",
  "compiler": {
    "name": "solc",
    "version": "0.8.13+commit.abaa5c0e.Emscripten.clang"
  },
  "schemaVersion": "3.4.16",
  "updatedAt": "2023-09-22T18:54:36.212Z",
  "networkType": "ethereum",
  "devdoc": {
    "kind": "dev",
    "methods": {},
    "version": 1
  },
  "userdoc": {
    "kind": "user",
    "methods": {},
    "version": 1
  }
}