{
  "contractName": "USERS",
  "abi": [
    {
      "inputs": [
        {
          "internalType": "uint256",
          "name": "",
          "type": "uint256"
        }
      ],
      "name": "Allusers",
      "outputs": [
        {
          "internalType": "address",
          "name": "pubkey",
          "type": "address"
        },
        {
          "internalType": "string",
          "name": "firstName",
          "type": "string"
        },
        {
          "internalType": "string",
          "name": "LastName",
          "type": "string"
        },
        {
          "internalType": "string",
          "name": "Email",
          "type": "string"
        },
        {
          "internalType": "string",
          "name": "password",
          "type": "string"
        },
        {
          "internalType": "string",
          "name": "confirmPassword",
          "type": "string"
        }
      ],
      "stateMutability": "view",
      "type": "function",
      "constant": true
    },
    {
      "inputs": [
        {
          "internalType": "address",
          "name": "",
          "type": "address"
        }
      ],
      "name": "users",
      "outputs": [
        {
          "internalType": "address",
          "name": "pubkey",
          "type": "address"
        },
        {
          "internalType": "string",
          "name": "firstName",
          "type": "string"
        },
        {
          "internalType": "string",
          "name": "LastName",
          "type": "string"
        },
        {
          "internalType": "string",
          "name": "Email",
          "type": "string"
        },
        {
          "internalType": "string",
          "name": "password",
          "type": "string"
        },
        {
          "internalType": "string",
          "name": "confirmPassword",
          "type": "string"
        }
      ],
      "stateMutability": "view",
      "type": "function",
      "constant": true
    },
    {
      "inputs": [
        {
          "internalType": "string",
          "name": "firstName",
          "type": "string"
        },
        {
          "internalType": "string",
          "name": "LastName",
          "type": "string"
        },
        {
          "internalType": "string",
          "name": "Email",
          "type": "string"
        },
        {
          "internalType": "string",
          "name": "password",
          "type": "string"
        },
        {
          "internalType": "string",
          "name": "confirmPassword",
          "type": "string"
        }
      ],
      "name": "createUser",
      "outputs": [],
      "stateMutability": "nonpayable",
      "type": "function"
    },
    {
      "inputs": [],
      "name": "getAllusers",
      "outputs": [
        {
          "components": [
            {
              "internalType": "address",
              "name": "pubkey",
              "type": "address"
            },
            {
              "internalType": "string",
              "name": "firstName",
              "type": "string"
            },
            {
              "internalType": "string",
              "name": "LastName",
              "type": "string"
            },
            {
              "internalType": "string",
              "name": "Email",
              "type": "string"
            },
            {
              "internalType": "string",
              "name": "password",
              "type": "string"
            },
            {
              "internalType": "string",
              "name": "confirmPassword",
              "type": "string"
            }
          ],
          "internalType": "struct USERS.userStruct[]",
          "name": "",
          "type": "tuple[]"
        }
      ],
      "stateMutability": "view",
      "type": "function",
      "constant": true
    },
    {
      "inputs": [
        {
          "internalType": "address",
          "name": "pubkey",
          "type": "address"
        }
      ],
      "name": "getUserDetails",
      "outputs": [
        {
          "components": [
            {
              "internalType": "address",
              "name": "pubkey",
              "type": "address"
            },
            {
              "internalType": "string",
              "name": "firstName",
              "type": "string"
            },
            {
              "internalType": "string",
              "name": "LastName",
              "type": "string"
            },
            {
              "internalType": "string",
              "name": "Email",
              "type": "string"
            },
            {
              "internalType": "string",
              "name": "password",
              "type": "string"
            },
            {
              "internalType": "string",
              "name": "confirmPassword",
              "type": "string"
            }
          ],
          "internalType": "struct USERS.userStruct",
          "name": "",
          "type": "tuple"
        }
      ],
      "stateMutability": "view",
      "type": "function",
      "constant": true
    }
  ],
  "bytecode": "0x608060405234801561001057600080fd5b50611aab806100206000396000f3fe608060405234801561001057600080fd5b50600436106100575760003560e01c806324ef549b1461005c57806365c06f701461007a578063a87430ba14610096578063c902d5e6146100cb578063cc3d967b14610100575b600080fd5b610064610130565b6040516100719190611543565b60405180910390f35b610094600480360381019061008f91906116ae565b6104bf565b005b6100b060048036038101906100ab91906117e1565b6107e6565b6040516100c296959493929190611867565b60405180910390f35b6100e560048036038101906100e09190611921565b610aea565b6040516100f796959493929190611867565b60405180910390f35b61011a600480360381019061011591906117e1565b610dfe565b60405161012791906119f3565b60405180910390f35b60606001805480602002602001604051908101604052809291908181526020016000905b828210156104b657838290600052602060002090600602016040518060c00160405290816000820160009054906101000a900473ffffffffffffffffffffffffffffffffffffffff1673ffffffffffffffffffffffffffffffffffffffff1673ffffffffffffffffffffffffffffffffffffffff1681526020016001820180546101dd90611a44565b80601f016020809104026020016040519081016040528092919081815260200182805461020990611a44565b80156102565780601f1061022b57610100808354040283529160200191610256565b820191906000526020600020905b81548152906001019060200180831161023957829003601f168201915b5050505050815260200160028201805461026f90611a44565b80601f016020809104026020016040519081016040528092919081815260200182805461029b90611a44565b80156102e85780601f106102bd576101008083540402835291602001916102e8565b820191906000526020600020905b8154815290600101906020018083116102cb57829003601f168201915b5050505050815260200160038201805461030190611a44565b80601f016020809104026020016040519081016040528092919081815260200182805461032d90611a44565b801561037a5780601f1061034f5761010080835404028352916020019161037a565b820191906000526020600020905b81548152906001019060200180831161035d57829003601f168201915b5050505050815260200160048201805461039390611a44565b80601f01602080910402602001604051908101604052809291908181526020018280546103bf90611a44565b801561040c5780601f106103e15761010080835404028352916020019161040c565b820191906000526020600020905b8154815290600101906020018083116103ef57829003601f168201915b5050505050815260200160058201805461042590611a44565b80601f016020809104026020016040519081016040528092919081815260200182805461045190611a44565b801561049e5780601f106104735761010080835404028352916020019161049e565b820191906000526020600020905b81548152906001019060200180831161048157829003601f168201915b50505050508152505081526020019060010190610154565b50505050905090565b846000803373ffffffffffffffffffffffffffffffffffffffff1673ffffffffffffffffffffffffffffffffffffffff1681526020019081526020016000206001019080519060200190610514929190611186565b50836000803373ffffffffffffffffffffffffffffffffffffffff1673ffffffffffffffffffffffffffffffffffffffff168152602001908152602001600020600201908051906020019061056a929190611186565b50826000803373ffffffffffffffffffffffffffffffffffffffff1673ffffffffffffffffffffffffffffffffffffffff16815260200190815260200160002060030190805190602001906105c0929190611186565b50816000803373ffffffffffffffffffffffffffffffffffffffff1673ffffffffffffffffffffffffffffffffffffffff1681526020019081526020016000206004019080519060200190610616929190611186565b50806000803373ffffffffffffffffffffffffffffffffffffffff1673ffffffffffffffffffffffffffffffffffffffff168152602001908152602001600020600501908051906020019061066c929190611186565b5060016000803373ffffffffffffffffffffffffffffffffffffffff1673ffffffffffffffffffffffffffffffffffffffff16815260200190815260200160002090806001815401808255809150506001900390600052602060002090600602016000909190919091506000820160009054906101000a900473ffffffffffffffffffffffffffffffffffffffff168160000160006101000a81548173ffffffffffffffffffffffffffffffffffffffff021916908373ffffffffffffffffffffffffffffffffffffffff160217905550600182018160010190805461075190611a44565b61075c92919061120c565b50600282018160020190805461077190611a44565b61077c92919061120c565b50600382018160030190805461079190611a44565b61079c92919061120c565b5060048201816004019080546107b190611a44565b6107bc92919061120c565b5060058201816005019080546107d190611a44565b6107dc92919061120c565b5050505050505050565b60006020528060005260406000206000915090508060000160009054906101000a900473ffffffffffffffffffffffffffffffffffffffff169080600101805461082f90611a44565b80601f016020809104026020016040519081016040528092919081815260200182805461085b90611a44565b80156108a85780601f1061087d576101008083540402835291602001916108a8565b820191906000526020600020905b81548152906001019060200180831161088b57829003601f168201915b5050505050908060020180546108bd90611a44565b80601f01602080910402602001604051908101604052809291908181526020018280546108e990611a44565b80156109365780601f1061090b57610100808354040283529160200191610936565b820191906000526020600020905b81548152906001019060200180831161091957829003601f168201915b50505050509080600301805461094b90611a44565b80601f016020809104026020016040519081016040528092919081815260200182805461097790611a44565b80156109c45780601f10610999576101008083540402835291602001916109c4565b820191906000526020600020905b8154815290600101906020018083116109a757829003601f168201915b5050505050908060040180546109d990611a44565b80601f0160208091040260200160405190810160405280929190818152602001828054610a0590611a44565b8015610a525780601f10610a2757610100808354040283529160200191610a52565b820191906000526020600020905b815481529060010190602001808311610a3557829003601f168201915b505050505090806005018054610a6790611a44565b80601f0160208091040260200160405190810160405280929190818152602001828054610a9390611a44565b8015610ae05780601f10610ab557610100808354040283529160200191610ae0565b820191906000526020600020905b815481529060010190602001808311610ac357829003601f168201915b5050505050905086565b60018181548110610afa57600080fd5b90600052602060002090600602016000915090508060000160009054906101000a900473ffffffffffffffffffffffffffffffffffffffff1690806001018054610b4390611a44565b80601f0160208091040260200160405190810160405280929190818152602001828054610b6f90611a44565b8015610bbc5780601f10610b9157610100808354040283529160200191610bbc565b820191906000526020600020905b815481529060010190602001808311610b9f57829003601f168201915b505050505090806002018054610bd190611a44565b80601f0160208091040260200160405190810160405280929190818152602001828054610bfd90611a44565b8015610c4a5780601f10610c1f57610100808354040283529160200191610c4a565b820191906000526020600020905b815481529060010190602001808311610c2d57829003601f168201915b505050505090806003018054610c5f90611a44565b80601f0160208091040260200160405190810160405280929190818152602001828054610c8b90611a44565b8015610cd85780601f10610cad57610100808354040283529160200191610cd8565b820191906000526020600020905b815481529060010190602001808311610cbb57829003601f168201915b505050505090806004018054610ced90611a44565b80601f0160208091040260200160405190810160405280929190818152602001828054610d1990611a44565b8015610d665780601f10610d3b57610100808354040283529160200191610d66565b820191906000526020600020905b815481529060010190602001808311610d4957829003601f168201915b505050505090806005018054610d7b90611a44565b80601f0160208091040260200160405190810160405280929190818152602001828054610da790611a44565b8015610df45780601f10610dc957610100808354040283529160200191610df4565b820191906000526020600020905b815481529060010190602001808311610dd757829003601f168201915b5050505050905086565b610e06611299565b6000808373ffffffffffffffffffffffffffffffffffffffff1673ffffffffffffffffffffffffffffffffffffffff1681526020019081526020016000206040518060c00160405290816000820160009054906101000a900473ffffffffffffffffffffffffffffffffffffffff1673ffffffffffffffffffffffffffffffffffffffff1673ffffffffffffffffffffffffffffffffffffffff168152602001600182018054610eb590611a44565b80601f0160208091040260200160405190810160405280929190818152602001828054610ee190611a44565b8015610f2e5780601f10610f0357610100808354040283529160200191610f2e565b820191906000526020600020905b815481529060010190602001808311610f1157829003601f168201915b50505050508152602001600282018054610f4790611a44565b80601f0160208091040260200160405190810160405280929190818152602001828054610f7390611a44565b8015610fc05780601f10610f9557610100808354040283529160200191610fc0565b820191906000526020600020905b815481529060010190602001808311610fa357829003601f168201915b50505050508152602001600382018054610fd990611a44565b80601f016020809104026020016040519081016040528092919081815260200182805461100590611a44565b80156110525780601f1061102757610100808354040283529160200191611052565b820191906000526020600020905b81548152906001019060200180831161103557829003601f168201915b5050505050815260200160048201805461106b90611a44565b80601f016020809104026020016040519081016040528092919081815260200182805461109790611a44565b80156110e45780601f106110b9576101008083540402835291602001916110e4565b820191906000526020600020905b8154815290600101906020018083116110c757829003601f168201915b505050505081526020016005820180546110fd90611a44565b80601f016020809104026020016040519081016040528092919081815260200182805461112990611a44565b80156111765780601f1061114b57610100808354040283529160200191611176565b820191906000526020600020905b81548152906001019060200180831161115957829003601f168201915b5050505050815250509050919050565b82805461119290611a44565b90600052602060002090601f0160209004810192826111b457600085556111fb565b82601f106111cd57805160ff19168380011785556111fb565b828001600101855582156111fb579182015b828111156111fa5782518255916020019190600101906111df565b5b50905061120891906112e5565b5090565b82805461121890611a44565b90600052602060002090601f01602090048101928261123a5760008555611288565b82601f1061124b5780548555611288565b8280016001018555821561128857600052602060002091601f016020900482015b8281111561128757825482559160010191906001019061126c565b5b50905061129591906112e5565b5090565b6040518060c00160405280600073ffffffffffffffffffffffffffffffffffffffff16815260200160608152602001606081526020016060815260200160608152602001606081525090565b5b808211156112fe5760008160009055506001016112e6565b5090565b600081519050919050565b600082825260208201905092915050565b6000819050602082019050919050565b600073ffffffffffffffffffffffffffffffffffffffff82169050919050565b60006113598261132e565b9050919050565b6113698161134e565b82525050565b600081519050919050565b600082825260208201905092915050565b60005b838110156113a957808201518184015260208101905061138e565b838111156113b8576000848401525b50505050565b6000601f19601f8301169050919050565b60006113da8261136f565b6113e4818561137a565b93506113f481856020860161138b565b6113fd816113be565b840191505092915050565b600060c0830160008301516114206000860182611360565b506020830151848203602086015261143882826113cf565b9150506040830151848203604086015261145282826113cf565b9150506060830151848203606086015261146c82826113cf565b9150506080830151848203608086015261148682826113cf565b91505060a083015184820360a08601526114a082826113cf565b9150508091505092915050565b60006114b98383611408565b905092915050565b6000602082019050919050565b60006114d982611302565b6114e3818561130d565b9350836020820285016114f58561131e565b8060005b85811015611531578484038952815161151285826114ad565b945061151d836114c1565b925060208a019950506001810190506114f9565b50829750879550505050505092915050565b6000602082019050818103600083015261155d81846114ce565b905092915050565b6000604051905090565b600080fd5b600080fd5b600080fd5b600080fd5b7f4e487b7100000000000000000000000000000000000000000000000000000000600052604160045260246000fd5b6115bb826113be565b810181811067ffffffffffffffff821117156115da576115d9611583565b5b80604052505050565b60006115ed611565565b90506115f982826115b2565b919050565b600067ffffffffffffffff82111561161957611618611583565b5b611622826113be565b9050602081019050919050565b82818337600083830152505050565b600061165161164c846115fe565b6115e3565b90508281526020810184848401111561166d5761166c61157e565b5b61167884828561162f565b509392505050565b600082601f83011261169557611694611579565b5b81356116a584826020860161163e565b91505092915050565b600080600080600060a086880312156116ca576116c961156f565b5b600086013567ffffffffffffffff8111156116e8576116e7611574565b5b6116f488828901611680565b955050602086013567ffffffffffffffff81111561171557611714611574565b5b61172188828901611680565b945050604086013567ffffffffffffffff81111561174257611741611574565b5b61174e88828901611680565b935050606086013567ffffffffffffffff81111561176f5761176e611574565b5b61177b88828901611680565b925050608086013567ffffffffffffffff81111561179c5761179b611574565b5b6117a888828901611680565b9150509295509295909350565b6117be8161134e565b81146117c957600080fd5b50565b6000813590506117db816117b5565b92915050565b6000602082840312156117f7576117f661156f565b5b6000611805848285016117cc565b91505092915050565b6118178161134e565b82525050565b600082825260208201905092915050565b60006118398261136f565b611843818561181d565b935061185381856020860161138b565b61185c816113be565b840191505092915050565b600060c08201905061187c600083018961180e565b818103602083015261188e818861182e565b905081810360408301526118a2818761182e565b905081810360608301526118b6818661182e565b905081810360808301526118ca818561182e565b905081810360a08301526118de818461182e565b9050979650505050505050565b6000819050919050565b6118fe816118eb565b811461190957600080fd5b50565b60008135905061191b816118f5565b92915050565b6000602082840312156119375761193661156f565b5b60006119458482850161190c565b91505092915050565b600060c0830160008301516119666000860182611360565b506020830151848203602086015261197e82826113cf565b9150506040830151848203604086015261199882826113cf565b915050606083015184820360608601526119b282826113cf565b915050608083015184820360808601526119cc82826113cf565b91505060a083015184820360a08601526119e682826113cf565b9150508091505092915050565b60006020820190508181036000830152611a0d818461194e565b905092915050565b7f4e487b7100000000000000000000000000000000000000000000000000000000600052602260045260246000fd5b60006002820490506001821680611a5c57607f821691505b602082108103611a6f57611a6e611a15565b5b5091905056fea26469706673582212203ee458bc8fc34e6c01a99bee40f7a5b2cdf533bf962ca3960b7c774c01ff3ad764736f6c634300080d0033",
  "immutableReferences": {},
  "source": "// SPDX-License-Identifier: MIT\r\npragma solidity ^0.8.13;\r\n\r\ncontract USERS{\r\n    struct userStruct{\r\n        address pubkey;\r\n        string firstName;\r\n        string LastName;\r\n        string Email;\r\n        string password;\r\n        string confirmPassword;\r\n    }\r\n\r\n    mapping(address=>userStruct) public users;\r\n    userStruct[] public Allusers;\r\n    // function getAlluser() public admin\r\n    function createUser(string memory firstName,string memory LastName,string memory Email,string memory password,string memory confirmPassword) public {\r\n        users[msg.sender].firstName=firstName;\r\n        users[msg.sender].LastName=LastName;\r\n        users[msg.sender].Email=Email;\r\n        users[msg.sender].password=password;\r\n        users[msg.sender].confirmPassword=confirmPassword;\r\n        Allusers.push(users[msg.sender]);\r\n    }\r\n    function getAllusers() public view returns(userStruct[] memory){\r\n            return Allusers;\r\n    }\r\n    function getUserDetails(address pubkey)public view returns(userStruct memory){\r\n            return users[pubkey];\r\n    }\r\n}",
  "sourcePath": "E:\\Web\\ReactPrac\\DECE\\ChatApp\\secondsServer\\contracts\\USERS.sol",
  "compiler": {
    "name": "solc",
    "version": "0.8.13+commit.abaa5c0e.Emscripten.clang"
  },
  "schemaVersion": "3.4.16",
  "updatedAt": "2023-09-22T18:54:36.218Z",
  "networkType": "ethereum",
  "devdoc": {
    "kind": "dev",
    "methods": {},
    "version": 1
  },
  "userdoc": {
    "kind": "user",
    "methods": {},
    "version": 1
  }
}